:020000040800F2
:1000000000000220213D0008FD0200080103000855
:1000100005030008090300080D03000800000000A4
:1000200000000000000000000000000011030008B4
:100030001503000800000000190300081D03000854
:10004000713D0008713D0008713D0008713D0008D8
:10005000713D0008713D0008713D0008713D0008C8
:10006000713D0008713D0008713D0008713D0008B8
:10007000713D0008713D0008713D0008713D0008A8
:10008000713D0008713D0008713D0008713D000898
:10009000713D0008713D0008713D0008713D000888
:1000A000713D0008713D0008713D0008713D000878
:1000B000713D0008713D0008713D0008713D000868
:1000C000713D0008713D0008713D0008713D000858
:1000D000713D0008713D0008713D0008D10A00081B
:1000E000713D0008713D000821030008713D0008C2
:1000F000713D0008713D0008713D0008713D000828
:10010000713D0008713D0008713D0008713D000817
:10011000713D0008713D0008713D0008713D000807
:10012000713D0008713D0008713D0008713D0008F7
:10013000713D0008713D0008713D0008713D0008E7
:10014000713D0008713D0008713D0008550300082D
:10015000713D0008713D0008713D0008713D0008C7
:10016000713D0008713D0008713D0008713D0008B7
:10017000713D0008713D0008713D0008713D0008A7
:08018000713D0008713D00080B
:1001880010B5054C237833B9044810B10448AFF3CF
:1001980000800121217010BD8005002000000000B2
:1001A8009C43000808B5064B1BB106480649AFF347
:1001B80000800648016811B1054A02B1904708BDA0
:1001C800000000009C430008840500207C050020F6
:1001D80000000000154B002B08BF134B9D46A3F5EC
:1001E800803A00218B460F461348144A121A03F02E
:1001F80095FE0F4B002B00D098470E4B002B00D0DC
:1002080098470020002104460D4600200C49002292
:10021800002303F0ABFD03F037FE2046294603F028
:10022800FFFC03F0F9FD00BF00000800000000001B
:10023800000000000000000080050020241F0020AE
:10024800413E00080A4B1A6830B472B9094991E86E
:1002580011000568896845F08075056022600868A6
:1002680040F001020A600121196030BC704700BFEC
:100278009C05002004000020034B5A68116813688D
:100288005B1A8342FBD370470400002008B500F0D6
:1002980063FA3F2801DC002008BD4021034800F034
:1002A80083FA00F005F8012008BD00BFCC14002037
:1002B800064B1A780AB1002070470548B3F80110B8
:1002C800D3F803300180436001207047CC1400202C
:1002D800740D002040F67450C2F20000704700BF51
:1002E80010B50446C0B200F08DF9200A00F08AF972
:1002F800022010BD704700BFFEE700BFFEE700BF49
:10030800FEE700BFFEE700BF704700BF704700BFB1
:10031800704700BF00F01ABD10B50B4CA37A63B14B
:100328004EF61050CEF20000026822F0060101607D
:1003380003F09AFB204602F005F84FF48020BDE850
:10034800104002F0D9BC00BFDC0E002040F6DC6093
:10035800C2F2000002F096B8704700BF704700BFB5
:1003680070B50120002482B0C4F20204014602F0F4
:10037800CBFF03260023694620464FF4D8520225B6
:100388008DF806308DF8073000928DF804508DF8FE
:10039800056002F04BFD204608210A2202F030FEDB
:1003A800204609210A2202F02BFE20460B210A22B0
:1003B80002F026FE0A2220460C2102F021FE012529
:1003C8004FF480636946204600938DF806508DF8F7
:1003D80007508DF8056002F029FD0A210A462046DB
:1003E80002F00EFE29464FF4804002F0C5FF80203F
:1003F800294602F097FF4FF08050294602F0F4FF9B
:10040800284602F079FC02B070BD00BF00B54FF479
:10041800C06083B003F0B6FA01234322032101A888
:100428008DF804208DF805308DF806108DF807300A
:1004380003F0B2FA03B000BDC0EB001044F6251378
:10044800C200C2F29243A3FB0210111A00EB51033F
:100458009A0802F0010001213AB110B102218A4242
:1004680004D302318A42FCD270477047704700BFFC
:100478004DF2C042C0F2010244F6251302FB00F01F
:10048800C2F29243A3FB0021401A01EB50029008EC
:1004980000F00101012338B111B10223984204D3BD
:1004A80002339842FCD2704770477047002070476B
:1004B80000207047F0B4002934D01C4A1C4D146841
:1004C8000346671C13F801CB41180026C043B7F553
:1004D800006F08BF374640188B42176005F804C004
:1004E800174600F001001DD020B1106813F801CBA9
:1004F800441C0EE0146813F801CB601CB0F5006FC3
:1005080008BF3046386005F804C0106813F801CBFE
:10051800441CB4F5006F08BF34468B4205F800C090
:100528003C60E7D10020F0BC704700BFC00E00203F
:10053800F01600202DE9F00100293FD0234D244B6F
:100548002A68244E1F680446531C14F801CB2B60FC
:100558004118C0434018802B06F802C0A8464FF047
:10056800000C00F001022DD09F4225D08C4225D0EE
:1005780052B114F8010BF0540133802B2B6016D0C4
:100588009F4219D08C4219D05A1C802A14F8010BAA
:100598002A6004BFC8F800C00022F054531C9742D8
:1005A8000AD014F8010B2B60802BB054E8D100233B
:1005B8009F42C8F800C0E5D1022000E00020BDE855
:1005C800F0017047C5F800C06346CDE7A0150020CC
:1005D8008C1500200C15002021280FD1084B1A6813
:1005E8000A701868020A4A7058888870DA78CA70DF
:1005F800187908715A794A719B798B710020704774
:1006080010000020074A136810B4591C064CB1F5B5
:10061800006FE05402D0116010BC704700201060D9
:10062800FAE700BFC00E0020F0160020F0B40378EF
:10063800002B3CD00346002213F8011F0132002989
:10064800FAD1002A33D01B4C1B4E256803466F1C79
:1006580013F801CB8218C043B7F5006F08BF0F46E7
:1006680080189342276006F805C0274600F001006D
:100678001DD020B1206813F801CB451C0EE0256879
:1006880013F801CB681CB0F5006F08BF0846386046
:1006980006F805C0206813F801CB451CB5F5006FB6
:1006A80008BF0D46934206F800C03D60E7D1F0BC94
:1006B800704700BFC00E0020F01600202DE9F001A1
:1006C800002941D0224A90F800C01368214E5C1CD2
:1006D8000027B4F5006F08BF3C4606F803C00123A5
:1006E80001F1FF3599421460944605F001052BD0BD
:1006F80075B1146890F80180631CB3F5006F0CBFE6
:100708003D461D460223994206F8048015601BD019
:10071800156810F803806C1CB4F5006F08BF3C46E0
:10072800CCF80040146806F805800133651CB5F55F
:10073800006F10F8038008BF3D460133994206F860
:100748000480CCF80050E3D1BDE8F001704700BF49
:10075800C00E0020F0160020044B054918680A68EE
:10076800904238BF8030801A704700BFA015002023
:100778008C150020094B0A491A68096891420AD069
:1007880008498A5C02701868411C802908BF00214A
:100798001960012070470020704700BF8C150020A9
:1007A800A01500200C1500202DE9F003304A314C2B
:1007B800136825689D42894653D000294CDD2E4D8B
:1007C800E95C017017680137002309F1FF38802FB1
:1007D80016469C4608F0010840D017602168B942C7
:1007E80036D001234B4537D0B8F1000F15D0EF5D57
:1007F800C7541168CF18802F35D037602168B942A7
:1008080026D001334B4508D126E021683760B9422C
:100818001ED008F101034B451ED0EF5DC754116887
:100828004F1C802F216812BF3760C6F800C0002710
:10083800B9420DD00133EF5DC75411684F1C802FAA
:100848009846E2D12168C6F800C00027B942E0D135
:100858001846BDE8F00370474B46F9E713601F469A
:10086800BCE70023F4E7C6F800C00027C6E700BFCE
:100878008C150020A01500200C150020F0B41C4F8A
:100888001C4E3C6833689C420ED01B4DE95C5A1CD8
:1008980019B10A2901D00D290AD1802A14BF13469B
:1008A80000239C42F2D1346000231846F0BC704704
:1008B8003360002307E09442F6D0A95C69B10A29A5
:1008C8000BD00D2909D0C15431683C6801335A183E
:1008D800802AF0D100224B42EDE70022C254306852
:1008E80004491A187F2A00D9803A0A60DDE700BF58
:1008F800A01500208C1500200C1500200649074B78
:1009080008681A68904205D00130802808BF002086
:100918009042F9D1086070478C150020A01500207E
:10092800704700BF122340F22C000B80C2F2000077
:10093800704700BF04230B80004870474000002028
:1009480010B541F6F064C2F2000444F2FC200A46F5
:10095800C0F60000214600F041FF204610BD00BF50
:1009680010B541F6F064C2F2000444F210300A46B1
:10097800C0F60000214600F031FF204610BD00BF40
:1009880010B541F6F064C2F2000444F220300A4681
:10099800C0F60000214600F021FF204610BD00BF30
:1009A80008B50A4628B10648064900F017FF054869
:1009B80008BD0548034900F011FF024808BD00BF03
:1009C8003C430008F01E00202C43000808B50A46E6
:1009D80028B10648064900F001FF054808BD05484A
:1009E800034900F0FBFE024808BD00BF7043000841
:1009F800F01E00204C430008704700BF704700BF3E
:100A0800704700BF704700BF704700BF704700BF06
:100A1800704700BF30B5082083B001214FF440640F
:100A280002F072FCC4F20204012200234FF4704564
:100A3800204669468DF80420022200958DF805208D
:100A48008DF806308DF8073002F0F0F92046294677
:100A580002F0C8FA03B030BD81B24FF44060C4F26E
:100A6800020002F0BDBA00BF81B24FF44060C4F288
:100A7800020002F0B7BA00BF81B24FF44060C4F27E
:100A8800020002F0B9BA00BF10B5082082B00121F7
:100A980002F03AFC0020024602230124C4F20200BC
:100AA800694600948DF804208DF805308DF80620ED
:100AB8008DF8073002F0BAF902B010BD0020C4F278
:100AC8000200012102F078BA4FF4904010B540F2CC
:100AD8002551C4F2000002F029FF4FF49040C4F2FF
:100AE800000040F2277102F021FF90B1114C2388D9
:100AF80062889A420ED0E1184FF49040C4F2000088
:100B0800097902F047FE23885A1C90B28028208079
:100B18000DD010BD4FF49040C4F2000040F2277190
:100B2800002202F0DDFE002084F8840010BD0021C0
:100B3800218010BD7C0D00202DE9F041012188B0F5
:100B480080464FF440674FF4802002F007FCC4F25F
:100B580002070820012102F0D7FB00240223012606
:100B680002A938464FF440728DF80C308DF80D30DC
:100B780002928DF80E408DF80F604FF4904502F008
:100B880055F938460821072202F03AFAC4F200055E
:100B980007223846092102F033FA0C2304A9284613
:100BA800ADF81A30CDF81080ADF81440ADF8164005
:100BB800ADF81840ADF81C4002F022FD2846324638
:100BC80040F2255102F08CFE2846224640F2277159
:100BD80002F086FE272101A88DF804108DF8054043
:100BE8008DF806608DF8076002F0D6FE284631467B
:100BF80002F09CFD08B0BDE8F08100BF0E4B10B4B8
:100C08005A889918013292B20871802A93F88400A0
:100C180008BF00225A8008B110BC70470123064C57
:100C28004FF49040C4F2000040F227711A4684F84D
:100C3800843010BC02F054BE7C0D002010B5044670
:100C4800007828B1FFF7DAFF14F8010F0028F9D16E
:100C580010BD00BF704700BF002070470173704788
:100C6800416070472DE9F0471A4F3B68984280462B
:100C78002ED0387940B307F1080A564607F1100418
:100C8800002505E03A79013510361034AA421BDDFB
:100C980054F8081C8845F5D9327B002AF2D00AEBB3
:100CA80005194846B368984754F8040C00EB080146
:100CB80044F8081C0028E5D13A7989F80C00013578
:100CC80010361034AA42E3DCC7F80080BDE8F0878C
:100CD800BDE8F087040E0020F0B440F60464C2F2C8
:100CE800000404F1080C27793E01A5190137A86012
:100CF800E9602A612B7527710CEB0600F0BC704780
:100D080040F24C13C2F2000310B441F259711C684E
:100D1800CDF2B71140F6AC62A1FB0431C2F2000279
:100D28004EF210034FF46D40CEF200034C0BCEF29E
:100D3800000000211160013CF0225C6080F8232053
:100D480007209960186010BC704700BF40F6AC637C
:100D5800C2F200031A68501C1860704740F6AC6372
:100D6800C2F200031868704740F6AC63C2F2000391
:100D78004CF6CD421868CCF6CC42A2FB0013D8083A
:100D8800704700BF094A30B44CF6CD411468CCF620
:100D9800CC41A1FB0435EC081368A1FB0353C4EB59
:100DA800D3058542F8D330BC704700BFAC0E002095
:100DB80010B5074C2068FF2807D0064B064A9B68E9
:100DC800064912689847FF202060002010BD00BF28
:100DD8008800002018000020B00E0020E81600202F
:100DE80043230B80004870478C00002038B51F4C07
:100DF80063685A1C052B626001D0002038BD217A37
:100E0800002301296360F8D0E1682569B1F5006F16
:100E180023D0A94226D015D88AB26D1A6561D0F8B8
:100E2800EC35B3F83930AB4211D2C918ED1AE1608C
:100E380065610F4D8121AA180125257201F034FE44
:100E4800002038BDC1F5006565618AB2E7E7002377
:100E580049196361E160ABB2EBE7E36015B11A468B
:100E68001946DAE700202072C7E700BFB00E00205D
:100E7800F016002038B501EB810140F21803054651
:100E8800C2F2000300EBC10041F2E854C2F20004D0
:100E9800B0F888131A6920469047D5F8EC352846EB
:100EA80001212246B3F8403001F0E2FD002038BDB0
:100EB80070B50B7813F060050C46064614D14B78D4
:100EC8000A2B27D00B2B38D0062B21D14988080AAA
:100ED800212803D1E2883A2A28BF3A2230462049FD
:100EE80000F0EAF9002070BD202D03D000F062FA6E
:100EF800022070BDCD88002D25D01B0610D44A785D
:100F0800184B19491A60194B2A461D6000F0EEF972
:100F1800002070BD1649012200F0CEF9284670BDA8
:100F280014481149836860782A46984730460E4924
:100F3800E28800F0C1F9002070BD8B785BB90B4ADC
:100F48001846936170BD48780A492A468B68294635
:100F58009847284670BD00F02DFA284670BD00BF9E
:100F68009E00002088000020E8160020B00E002017
:100F7800C80E00201800002010B58121044601F099
:100F880061FD0121204601F05DFD8221204601F02E
:100F980059FD40F21803C2F2000358688047002048
:100FA80010BD00BFD0F8EC2538B5044681210223D6
:100FB800B2F8392001F024FDD4F8EC350121B3F85A
:100FC80040202046022301F01BFD82210822032332
:100FD800204601F015FD40F22C0040F21802C2F242
:100FE8000000C2F200020221002513680171457158
:100FF8009847D4F8EC3541F2E85220460121C2F274
:101008000002B3F8403001F033FD284638BD00BF78
:1010180038B512490B7A012B01D0002038BD4B6935
:10102800CBB1D0F8EC25B2F83940CA68A3420BD846
:10103800D418CC60002492B24C61094C8121A218CA
:1010480001F032FD002038BD1B1BA5184B6192B280
:10105800CD602346F1E70B72002038BDB00E0020AA
:10106800F0160020D0F8E43510B50446186980471A
:10107800032184F81211002010BD00BF08B5042216
:10108800D0F8E43580F81221D8688047002008BDE0
:1010980008B5D0F8E035D96901B18847002008BD06
:1010A80008B5D0F8E035196A8847002008BD00BFA8
:1010B80008B5D0F8E035596A8847002008BD00BF58
:1010C800002110B50B460446402201F099FC80210E
:1010D80040220023204601F093FCD4F8E435A078A0
:1010E800012284F8122159688847002010BD00BFEA
:1010F80010B582B06946044600F03AF99DF8001030
:1011080001F01F03012B0FD009D3022B11D0204669
:1011180001F0800101F0E4FC002002B010BD20467F
:10112800694600F0E3F9F7E72046694600F0C4F99C
:10113800F2E72046694600F053F9EDE770B504463A
:1011480029B990F81131022B0CD0002070BDD0F8CD
:10115800E0355B69002BF8D090F81221032AF4D10E
:101168009847F2E7D0F83421D0F820319A4211D9C3
:10117800C078D4F824110128C3EB020208BFC918AB
:10118800C4F8342108BFC4F82411204692B200F0F4
:10119800A3F8DAE7D0F83851B5FBF3F603FB165697
:1011A8005EB9AB4209D8D0F83C21954205D2324607
:1011B80000F092F8C4F83C61C7E7D4F8E005C168CC
:1011C80019B194F81231032B03D0204600F0B8F877
:1011D800BBE720468847F8E710B5044629B990F8D8
:1011E800111103290CD0002010BDD0F8E0359B69FF
:1011F800002BF8D090F81221032AF4D19847F2E78F
:10120800D0F88C23D0F878339A4214D9C078D4F81F
:101218007C130128C3EB020208BFC918C4F88C2349
:1012280008BFC4F87C139A4228BF1A46204692B2D7
:1012380000F06CF8D7E7D0F8E0150B691BB190F80F
:101248001221032A03D0204600F06AF8CBE798471A
:10125800F9E700BF2DE9F041069D044616461F46F2
:101268008846FFF77DF820464146C4F8E075C4F883
:10127800E455C4F8E86501F07DFBD4F8E435186856
:1012880080472046BDE8F041FFF7C0B8002070470E
:10129800D0F8E03510B504461A689047D4F8E4054C
:1012A80081688847002010BD08B5D0F8E0355A6835
:1012B8009047002008BD00BF13460A46022110B51A
:1012C800C0F83831C0F8343180F8111100210446D3
:1012D80001F0EAFB002010BD10B50C4613460021B2
:1012E800224601F0E1FB002010BD00BF13460A466C
:1012F800032110B5C0F89033C0F88C3380F8111171
:101308000021044601F0B4FB002010BD10B50C46C6
:1013180013460021224601F0ABFB002010BD00BFA0
:1013280038B50021042504460A460B4680F81151B9
:1013380001F0BAFB204600F0C5FF002038BD00BF11
:1013480038B50021052504460A460B4680F8115198
:1013580001F08EFB204600F0B5FF002038BD00BF2D
:1013680001EB810100EBC100B0F88803704700BFB2
:1013780090F8C8350B7090F8C9254A7090F8CA35AE
:1013880090F8CB2503EB02224A8090F8CC3590F8F0
:10139800CD2503EB02228A8090F8CE3590F8CF2530
:1013A80003EB022293B2CB800121C0F83C3180F8D4
:1013B8001111704710B591F90030002B044609DB74
:1013C800C98839B1002101F08BFB2046BDE81040E7
:1013D80000F078BF2046802101F082FBF5E700BFCE
:1013E80070B54B788A88012B0C460546D6B21CD0BE
:1013F80003D3032B25D0002070BD90F81231022BA7
:1014080017D0032B23D1130646D406EB860600EB30
:10141800C60696F87203002848D1264A1060284666
:1014280024490222FFF748FFE5E790F81231022B22
:1014380011D1002EDFD0802EDDD0314601F050FBD7
:10144800D9E790F81221022AF3D0032A19D0FFF71E
:10145800B1FF002070BD032BF9D14A88002ACAD1F8
:1014680056B1802E08D0314601F05AFBD5F8E01568
:1014780028468B68214698472846FFF751FF0020E9
:1014880070BD49880029F1D1002EEFD0802EEDD013
:10149800314601F025FBE9E702F07F0202EB820109
:1014A80000EBC10393F81A010028B6D001490120C6
:1014B8000860B4E7CC0E002038B590F81231032B41
:1014C80004460D4603D0FFF775FF002038BD0A79A2
:1014D800012AF8D8D0F8E0359A689047E8880028BB
:1014E800F3D12046FFF71CFFEFE700BF70B54B783C
:1014F80082B00C460546092B11D8DFE803F0384ABC
:10150800105F107694100517E288012A07D190F829
:101518001211022900F03381032900F0D8802846EF
:101528002146FFF747FF002002B070BDA178A84E02
:1015380001293171F3D890F81201022800F02381B3
:101548000328ECD1002900F0378195F81011012902
:1015580000F0C7802846FFF7A7FE3179284685F8AE
:101568001011FFF795FE2846FFF7DAFEDBE790F843
:101578001221911E0129D2D8D0F81401002869D16E
:10158800934B0122DA60284692490122FFF794FE24
:10159800C9E790F81201831E012BC0D86288012A7E
:1015A800C1D1D5F8E01500208B68C5F8140128468C
:1015B800214698472846FFF7B3FEB4E76388012B16
:1015C80000F0F480022BAED1A28812F0FF0FAAD14E
:1015D8000169140A4A68631E1046042B00F28080D1
:1015E800DFE803F0838D88927A00A188002996D1DC
:1015F800E088002893D1668895F8122106F07F03C9
:10160800032A1E468BD0284685F81331194601F067
:10161800B5FA2846FFF784FE002E00F0C3800220AA
:1016280085F812017FE76088020A531E062B3FF6F1
:1016380076AF01A151F823F0B51600087716000817
:101648006516000827150008271500082715000843
:10165800271500085E490320C86094E7C1B2052930
:101668003FF65DAFDFE801F0827970675E55D5F827
:10167800E035A8789A6A0DF10601904701460220E4
:101688004870C5F8EC15BDF80630002B3FF44BAF99
:10169800E288002A3FF447AF934228BF1346284602
:1016A8001A46ADF80630FFF707FE3CE7D5F8E8150F
:1016B800A8780B680DF106019847E288402A014690
:1016C80003D095F812010128DDD10823E1E700F5E0
:1016D8008871FFF7F1FD26E7052262F3061002463E
:1016E8004A602846FFF71CFE1DE7012464F3061034
:1016F8000246F5E7032363F306100246F0E70222E9
:1017080062F306100246EBE7042464F3061002466F
:10171800E6E7D5F8E825A87893690DF1060198471A
:101728000146B0E7D5F8E815A8784A690DF1060131
:1017380090470146A7E7D5F8E835A8781A690DF16A
:101748000601904701469EE7D5F8E815A878CB68CA
:101758000DF106019847014695E7D5F8E825A878E0
:1017680093680DF10601984701468CE7D5F8E8150E
:10177800A8784A680DF106019047014683E71649A3
:10178800FFF79AFDCFE60029ABD00121032385F8A6
:10179800101185F812312846FFF77AFD2846FFF721
:1017A800BFFDC0E6012185F81211BCE6D0F8E015AE
:1017B800C0F814318B68FAE6022285F8122185F800
:1017C80010112846FFF770FD2846FFF7A9FDAAE685
:1017D800CC0E0020D80E0020D40E002030B4F0B17A
:1017E8000378F3B10446002314F8015F0133DBB238
:1017F800002DF9D15C00A31CDCB2138003220C700D
:101808004A7002785AB1022300255C1CE4B2CA541B
:101818000D5510F8012F0233DBB2002AF5D130BC88
:10182800704702242346E8E730B5054683B0002315
:1018380003200193FEF700FEEB681A694FF4546425
:101848000192C0F203040FE0FEF7F6FDEB681A6997
:1018580001920199032000290CDBFEF7EDFDEB68EE
:101868001969013C019124D001990320002904F150
:10187800FF34E9DA019840F00102019201991961F7
:1018880018694FF454620190C0F2030208E0186925
:1018980001900199C90709D51869013A019005D045
:1018A800019911F0010F02F1FF32F0D10320FEF788
:1018B800C3FD002003B030BD10B4C47814BB00EBE6
:1018C800820003339B10D0F8D0001BD051F8042BB2
:1018D800026001225C1E0431934204F0010411D01D
:1018E80034B151F8044C022204319342046009D007
:1018F80051F8044C046051F8044B0232043193420D
:101908000460F5D1002010BC704700BF033270B4EA
:101918009510D0F8D0401ED00B4620686A1E43F8B8
:10192800040B02F0010001220433954211D030B1BA
:101938002068022243F8040C0433954209D0266833
:1019480043F8046C266843F8046B0232043395426A
:10195800F5D101EB8501084670BC70472DE9F00F01
:10196800002301224024012984B0C370827084803E
:1019780000F0BF80002900F099800178427800913A
:101988004FF40064C3600461002A00F0D4804FF46F
:1019980060654FF488664FF4806103950296019163
:1019A8009B464FEA421AAAF1200220230BF5106544
:1019B8000BF53066C2F34014021D53458561466538
:1019C8001ED04CB10BF512640BF5326140239461C3
:1019D80051650432534513D0814603F1200705EBC6
:1019E800030806EB030CE8194033F719C2F818800E
:1019F800C2F854C0D061976508325345EDD14846C6
:101A0800019C00994461029CC0F8CC40002945D053
:101A1800009D0BF5A06202EB4515AC1A0BF5A4630B
:101A2800203CC0F89020021DAB42C4F3401111D0F5
:101A380031B1C2F890300BF5A8630432AB4209D03B
:101A480003F12004C2F890304033C2F894400832C1
:101A5800AB42F5D1009C0BF5805202EB0435A91A74
:101A68000BF50053A1F58051C0F8D020021DAB4200
:101A7800C1F3003112D031B1C2F8D03003F5805330
:101A88000432AB420AD003F58054C2F8D03003F5D3
:101A98000053C2F8D4400832AB42F4D10399C0F8DD
:101AA8000C11002004B0BDE8F00F70470C254FF46E
:101AB800A0660023C1720570C6804FF4606100956E
:101AC8004FF480664FF4886506224FF40064C4F230
:101AD8000403C4F20401C4F20405C4F2040642700B
:101AE800039102950196C4F204049B46C360046105
:101AF80057E708250226C1724FF4A0710570C1800E
:101B080006724FF4606100954FF480664FF4886563
:101B180004224FF400644FF0A043C5F20001C5F25F
:101B28000005C5F200064270039102950196C5F2C0
:101B380000049B46DAE74FF460634FF488614FF482
:101B48008064039302910194934659E738B5037A68
:101B58000025012B04462FD0C168CA6842F0400313
:101B6800CB60FFF761FE207A617A032814BF4FF437
:101B780080324FF4403242F4301309B142F470130A
:101B8800E16814208B63FEF773FCE368207ADA6857
:101B9800032808BF42F48032DA60217A032935D05D
:101BA800E378012B06D1E068816821F03E0242F01B
:101BB8002A038360002038BDC068617A826B65F3B0
:101BC800104209B142F480128263C36823F4800191
:101BD80021F0500242F010036FF3C3036FF3C713F1
:101BE8006FF351436FF3D343C3602046FFF71CFEE6
:101BF800E0780128DED1052161F34405E26845F06B
:101C080020059560E378012BCDD0D3E71D6B01202B
:101C180060F39B656FF3D7552D2245F0805562F32D
:101C28001645C8201D63FEF723FCE36845F400054C
:101C38001D63C820FEF71CFCB2E700BFC3689A68A2
:101C480042F0010098600020704700BFC3689A689E
:101C580022F0010098600020704700BF00B583B0F3
:101C680000230193019A42F020030193019A61F342
:101C78008A1201920199C268116110694FF4546384
:101C88000190C0F2030308E01069019001998806E9
:101C980009D51069013B019005D0019911F0200F79
:101CA80003F1FF33F0D10320FEF7C6FB002003B099
:101CB80000BD00BF00B583B000230193019941F036
:101CC80010020192019BC068036101694FF45463DB
:101CD8000191C0F2030308E001690191019AD1065C
:101CE80009D50169013B019105D0019A12F0100F45
:101CF80003F1FF33F0D10320FEF79EFB002003B071
:101D080000BD00BFC26808B5D36801296FF35D73D1
:101D18006FF39E7308D009B943F080433220D36033
:101D2800FEF7A6FB002008BD43F00053F6E700BF0E
:101D3800C368586900F00100704700BFC36858695C
:101D480000F0010181F00100704700BFC3685869C5
:101D580000F00100704700BFC3685A6998691040D5
:101D6800704700BFC3685868704700BF03691A68A6
:101D780061F301021A60704710B4C3684FF400643D
:101D880000224FF0FF31C8F200049A61596159608E
:101D980059619C61C1789869914214BF114610211C
:101DA80041F4872141F0081141F4401120EA010073
:101DB80008439861104610BC704700BFF8B5054647
:101DC800D0F80C012A6900210160166861F3CC265D
:101DD80016600B46E97A012956D010212846FFF7EC
:101DE8003DFF2846FFF766FF2E6900224FF0FF33BC
:101DF80032617261B361F2616878002830D0294697
:101E08002C469646FF27A3691868C0F3076000F0C0
:101E18008000C0B2002814BF4FF090400020186026
:101E2800C3F810E09F606B78013204349342EAD81B
:101E3800B3B100221746FF244B6D1868C0F3076042
:101E480000F08000C0B2002814BF4FF0904000207E
:101E580018601F619C606B78013204319342EBD8A3
:101E6800306940F480733361EA78012A07D102F5BA
:101E78008171C0F20101402060F359413163284665
:101E8800FFF77AFF0020F8BD1668E868C0278024AD
:101E98004FF4800167F30F0346F00306166064F3FE
:101EA8001F4364F30F014FF4A07244628162C0F8CB
:101EB800043162F30F036FF31F43C0F80831C0F811
:101EC8000C318AE703699868C0F341014B1E022B65
:101ED80002D8024AD05C704703207047F8420008D5
:101EE8000369826998681168C0F34100022808D024
:101EF8006FF30A0111605A6842F48071596000203A
:101F08007047032060F30A01F4E700BF70B44B7810
:101F18000022012B24D00B7800EB8304012505FA5D
:101F280003F3646D63F31F422368C3F3072505F0C9
:101F38008005EDB26DB98E68CD78C98866F30A035D
:101F480065F3934361F3995343F0805343F400419D
:101F580021600069C3691A43C261002070BC7047E0
:101F68000C7800EB840503FA04F363F30F02AC6901
:101F7800DAE700BF30B44A780023012A1C4613D0A0
:101F88000A7800EB8201012505FA02F2496D62F335
:101F98001F4400696FF3CF330B60C36923EA04045D
:101FA800C461002030BC7047097800EB810502FA53
:101FB80001F262F30F04A969EBE700BFF0B44B78B4
:101FC800012B3ED00A784D6900EB8204636D1C68D2
:101FD8001A69EDB18F68EE19751EB5FBF7F5AE05F8
:101FE800B60D65F3DC4207FB06F666F312021A61CA
:101FF800C378012B16D0CB78012B1CD0097800EBC5
:10200800810044F00444436D1C600020F0BC70471C
:102018008D6865F31202012565F3DC421A61C37805
:10202800012BE8D10A780B6900EB8202526D5361EB
:10203800CB78012BE2D14A79002A67D044F00054CA
:10204800DCE70E784A6900EB8605AD692E682C69D5
:10205800002A56D08B68CF7802EB030C0CF1FF3CBA
:1020680062F31204BCFBF3F363F3DC44012F08BFF3
:1020780067F35E742C61C478012C51D0CB78012BA6
:1020880047D052B103690C785D6B012707FA04F455
:102098002C435C63CB78012B3BD00C7800EB84039A
:1020A80046F004469C692660CC78012CADD1C578F1
:1020B800CB680978002DA8D192B200EB8100D11C21
:1020C8008A10D0F8D000A0D053F8041B551E043352
:1020D800012A016005F00105214696D035B153F873
:1020E800044C022104338A4204608ED053F8044C15
:1020F800046053F8044B023104338A420460F5D17A
:1021080083E762F3120463F3DC44B3E744F08054DA
:1021180074E70469A368DC0509D446F00056BCE7F7
:102128000C780B6900EB8404A4696361B2E746F09C
:102138008056B2E7F0B44B78012B82B02DD00C78E2
:102148004A6900EB84056B6D1D681E690096F2B143
:102158008E689DF800409DF802204E6166F30604E3
:10216800012666F3C4028DF800408DF80220009A1B
:102178001A61C378012B3FD0097800EB810045F044
:102188000442436D1A60002002B0F0BC70479DF80D
:1021980000409DF802208E68E0E782694C69166865
:1021A80015690095002C2ED08B689C423FD99DF86C
:1021B80000404B6163F306048DF800409DF802303F
:1021C800012464F3C4038DF80230009B1361C378C3
:1021D800012B25D046F004431360C278002AD2D1DF
:1021E8004B69002BCFD003690A78596B012000FA9C
:1021F80002F20A435A63C6E70A780B6900EB8202C7
:10220800526D5361B8E79DF800709DF8025064F371
:10221800060763F3C4058DF800708DF80250D4E703
:102228000C780B6900EB8404A4696361D2E79DF81C
:10223800003064F306038DF80030BFE74B78097867
:10224800012B00EB810006D0436D1A6842F400119F
:1022580019600020704780690368C3F3076202F0C1
:102268008001CAB20AB143F0804343F4001101600F
:10227800002070474B78012B0B78C97800EB83005E
:102288000CBF8269426D1368881E6FF3555301288D
:1022980098BF43F0805313600020704703699A6920
:1022A800D8691040000C704700EB810102694B6D42
:1022B800996850690840704703699869D969084066
:1022C80080B2704782B00122002362F3C403002168
:1022D8000091C0228DF8023018238DF803208DF864
:1022E8000030416D009A0A61C378012B06D100F5D0
:1022F800B96048610A684FF080220A6002B07047EE
:10230800D0F8143110B50446D3B100698268D207F9
:1023180016D5A17A41B1D4F80C31D4F80C216FF359
:1023280041036FF300031360416841F00103436008
:102338000520FEF79DF82069426822F001014160FE
:1023480010BD00BF837A63B101698A68D10708D5D7
:10235800D0F80C31D0F80C016FF341036FF3000390
:102368000360704738B543780122054680F812218A
:102378005BB103460022FF219C69A160586D816012
:102388006C78013204339442F6D8296900224FF060
:10239800FF330A6128464A61CA618B61FFF78AFCEC
:1023A80028461021BDE83840FFF758BC4B7809781B
:1023B800012B00EB810014D0426D1368C3F3074171
:1023C80001F02000C2B24AB901F00203D9B20029D3
:1023D8000CBF4FF440504FF4005070474FF48050FA
:1023E800704780690268C2F3074101F02003D8B240
:1023F80038B901F00202D1B200290CBF30202020E8
:1024080070471020704700BF70B44D780E78012DCA
:102418000C4600EB860312D05D6D2B68B2F5805F29
:102428001E4616D0B2F5005F10D0B2F5405F15D049
:1024380012B962F3CF3633462B6070BC70479D6982
:102448002B68102A1E4619D0202A05D143F00063B4
:10245800F2E743F40013EFE7302AE9D1C3F3074268
:1024680002F02002D2B222B943F0806040F080230B
:10247800E2E70023637170BCFFF7FCBE70BCFFF796
:10248800DDBE00BF2DE9F04F83B00546FFF756FCCF
:1024980018B9002003B0BDE8F08F2846FFF75CFCB0
:1024A80001900028F5D0C0F3074808F00800C0B232
:1024B800002840F0C08008F004085FFA88F2002A7B
:1024C8004BD10199CCB204F00203DAB212B1EE6832
:1024D80002217161019BC3F3076202F08006F1B229
:1024E800002940F04B81019BC3F3072606F0080240
:1024F800D1B2002940F01F8104F00802D3B2002BAA
:1025080040F00F8104F01004E1B2002940F0E280AD
:1025180006F01003D9B2002940F0718106F02006B8
:10252800F6B2002E40F05381019AC2F3074404F03A
:102538001003D9B2002940F03F8104F02004E4B22E
:10254800002CA7D09B4A13682846196A8847E86870
:102558004FF40012426101209CE72846FFF7ACFEC9
:102568000746002865D02E464FF0000934E003F0F6
:102578000404E0B210B1B2690423936003F00801C7
:10258800CCB214B1B0690823836003F01002D1B251
:1025980011B1B4691023A36003F02000C2B212B1D4
:1025A800B16920238B6003F04004E0B210B1B26936
:1025B8004023936003F00201CCB214B1B069022346
:1025C800836003F08002D1B2002940F06E810436A6
:1025D8007F0809F101092CD0F807F8D52A695FFAB4
:1025E80089FA1069536B05EB8A0123FA0AF48969A1
:1025F800E3018C68D9B201432140CBB2D907B6D5E3
:1026080040F2FC00C2F20000536B0168012404FA96
:1026180009F023EA00035363B3694A689C602846BB
:102628005146904795F80380A04500F07F812346E6
:102638009DE7012045E72846FFF730FE04460028BD
:1026480046D0DFF87091AB462E46002705E00137EB
:10265800043664080BF1280B3AD0E207F7D55FFA85
:1026680087FA28465146FFF71FFEC0B2C30713D5A5
:10267800736D01219960EA788A4200F06781D9F880
:102688000030514628461A68904795F803A0BAF1D9
:10269800010F00F05481012000F00201CBB213B108
:1026A800726D0220906000F00401CBB213B1726D1C
:1026B8000420906000F00801CBB2002BC7D0D9F8F5
:1026C8000020284691688847706D08238360BEE71C
:1026D8000120F0E6EB689F6927F010029A611C6AF6
:1026E80004F00F0000EB8001C4F3434205EBC1077F
:1026F800022A07F55C7700F0BA80062A0BD105F5A7
:10270800B96128460822FFF701F9B869EB68C4F3F4
:102718000A140119B961986940F010029A61012000
:10272800F6E6244801682846CA689047EB680820FE
:1027380058610120E6E61F48036828465A69904711
:102748002969E86889684FF400634361AA7A9AB1F5
:10275800CB0711D5D5F80C01016841F001030360DE
:1027680001684FF46D42CEF2000241F003030360AA
:10277800106940F0060111610120BDE6A87A40B158
:10278800D5F80C31D5F80C216FF341036FF3000332
:1027980013602E6907487168036821F001027260AE
:1027A80028469E69B047E9684FF00040486101201B
:1027B80099E600BFFC0000206D4802682846D369EE
:1027C8009847E9684FF4801048610120B5E628462B
:1027D800FFF786FBEC682846E468FFF773FB0328DD
:1027E8005AD0012040230522A870AB8062F38D24C3
:1027F800E968CC604FF4005401204C6194E62C69E0
:102808006068002720F00102626028463946FFF719
:1028180025FA6B785BB12B463A46FF2499698C60A0
:10282800586D84606978013204338A42F6D30124F2
:10283800296964F30F072F234FF0FF300F2264F349
:102848001F478861CF614A610B610A686FF30A12FA
:102858000A602846FFF736FD4549E8680B684FF4DB
:1028680080524261196928468847204656E647F64D
:10287800F0722240002A3FF44EAFC4F30A142246F5
:10288800F9682846FFF742F8F868BA69EB68011951
:102898001419F960BC613EE700214FF40070092368
:1028A800A970A88063F38D24A2E709EB890405EBDE
:1028B800C40000F58C74B2696369A169A068D2F894
:1028C80018C0C1EB0308804534BFC34683460BF1EB
:1028D800030B1FFA8CFEBEEB9B0F24D98B4222D927
:1028E8000BB3E16805E062699A421BD9A068C3EBA3
:1028F8000208404538BF80461FFA88F352462846EA
:10290800FEF7DAFFE268A06902EB080108EB0003B2
:10291800E160A361B069826908F1030892B2B2EB81
:10292800980FE0D802468024946050E6B9F1000F71
:1029380003D195F81111042915D0434617E61FB99C
:1029480095F8110105280AD05046A5E61869DBF864
:102958007833C0F312015A1ACBF888238FE6284639
:10296800FFF7B0FCF0E72846FFF7ACFCE5E700BF4F
:10297800FC00002070B50446FEF7F0FF62780126DF
:10298800002384F8126184F813313AB319464025BC
:1029980003EB8300C20002F58C7022182354D38005
:1029A8005670D1709560D16051616078013398425A
:1029B800EED898B100231946402503EB8302D000D6
:1029C80000F55C7022182354D3805170D170956043
:1029D800D1605161607801339842EED82046FFF704
:1029E80035F92046FFF7B2F800212046FFF78AF9AB
:1029F8002046FFF7E3F92046BDE87040FFF71EB90F
:102A080038B501F07F0404EB8405ED0009060FD406
:102A180005F55C754119445500244C708A60CB70EB
:102A2800022B01D100230B71FFF770FA002038BD8B
:102A380005F58C754119445501254D708A60CB7098
:102A4800CC80EDE708B501F07F03CAB203EB830140
:102A580000EBC10112F0800F14BF01F58C7101F574
:102A68005C71D2090B704A70FFF784FA002008BD28
:102A780070B501F07F0404EB8406F10001F55C7683
:102A8800811900258455CA604B618D614D70C378EA
:102A9800012B08BF0A611CB1FFF790FA002070BD36
:102AA800FFF748FB002070BDF8B501F07F0404EB88
:102AB8008405E90001F58C7541190127CA600A618E
:102AC800002206464F7044558A614B611CB1FFF7DE
:102AD80075FA0020F8BDFFF72DFB0020F8BD00BFF8
:102AE800CAB2130610B511D401EB810300EBC3047D
:102AF80004F55C7301F07F01D209012419709C7000
:102B08005A701946FFF79AFB002010BD01F07F01AB
:102B180001EB810400EBC40303F58C73ECE700BF01
:102B2800CAB210B5140611D401EB810300EBC3043B
:102B380004F55C7301F07F010024D20919709C70C0
:102B48005A701946FFF796FB204610BD01F07F0129
:102B580001EB810400EBC40303F58C73ECE700BFC1
:102B680008B50B0603D4FFF7A5F8002008BD01F04F
:102B78007F01FFF773F8002008BD00BF036900223A
:102B8800186861F30A1202431A60704703695A68A9
:102B980003206FF341025A60FDF76ABC03695A6863
:102BA80042F0020058600320FDF762BC0A0607D411
:102BB80001EB810100EBC10202F55C71FFF7F6BB86
:102BC80001F07F0303EB830100EBC10202F58C7176
:102BD800F4E700BF0B0607D401EB810100EBC1034A
:102BE80003F55C71FFF710BC01F07F0101EB810375
:102BF80000EBC30101F58C71F4E700BF4FF470538B
:102C0800C4F201034FF6FF710022C0F27F011A607F
:102C18005A609A60DA605961704700BF837970B46E
:102C28003BB34FF47053C4F2010301681E68027984
:102C38004579CC4326401E605E6802F1804202F569
:102C48009E3234405C6014682143116002689868C1
:102C5800D14308409860D868102D01EA0001D96076
:102C680013D005F1804505F59E352B681A432A6077
:102C780009E00279016802F1804000F59E331A6884
:102C880022EA01021A6070BC704799681143996082
:102C9800D8680243DA60F6E700230C220360037168
:102CA80042718371704700BF4FF47053C4F201033F
:102CB8001A691043186170474FF47053C4F2010346
:102CC800596908420CBF0020012070474FF4705327
:102CD800C4F20103586170474FF47053C4F2010302
:102CE8001A68596910EA010304D010420CBF002089
:102CF80001207047184670474FF47053C4F201031F
:102D08005861704708B50023C4F2020398423CD0CA
:102D18004FF48061C4F20201884240D04FF400624F
:102D2800C4F20202904244D04FF44063C4F202035A
:102D3800984248D04FF48051C4F2020188424CD0E6
:102D48004FF4A052C4F20202904250D04FF4C05344
:102D5800C4F20203984254D04FF4E051C4F2020185
:102D6800884258D04FF40052C4F20202904200D078
:102D780008BD01214FF4807000F00CFB4FF4807007
:102D88000021BDE8084000F005BB0120014600F025
:102D980001FB01200021BDE8084000F0FBBA022039
:102DA800012100F0F7FA02200021BDE8084000F0F8
:102DB800F1BA0420012100F0EDFA04200021BDE859
:102DC800084000F0E7BA0820012100F0E3FA0820E3
:102DD8000021BDE8084000F0DDBA1020012100F014
:102DE800D9FA10200021BDE8084000F0D3BA20200D
:102DF800012100F0CFFA20200021BDE8084000F0B2
:102E0800C9BA4020012100F0C5FA40200021BDE8E0
:102E1800084000F0BFBA8020012100F0BBFA8020F2
:102E28000021BDE8084000F0B5BA00BF2DE9F00F59
:102E38000E6884B00022884613464FF0010B0096B6
:102E48008A4607E0DDF80490A14539D04B1CAA1C3E
:102E5800102B54D0009E0BFA03F5591C05EA060CFA
:102E68000BFA01F42640AC45019602F10205E9D1BE
:102E7800032606FA02F907689AF804806FEA090936
:102E88004E463E4006600768CDF80C9008FA02F9F5
:102E980008F1FF3849EA0709B8F1010FC0F80090B6
:102EA80031D9C368039F9AF807C0DDF804903B4006
:102EB800C360C3680CFA02F21A43A145C260C5D1C7
:102EC800032304689AF80420AB40DB431C400460E9
:102ED800046802FA05FC013A4CEA0404012A046079
:102EE80033D9C2689AF807401340C360C26804FA2D
:102EF80005F31343C3604B1CAA1C102BAAD104B0C2
:102F0800BDE8F00F7047D0F80880039E9AF8067065
:102F18009AF8059006EA0808C0F80880D0F80880F2
:102F280009FA02F949EA0808C0F80880D0F80480CC
:102F380028EA0C0CC0F804C0D0F8049007FA03F390
:102F48009FB247EA09034360ABE786689AF80570C1
:102F58009AF806201E408660846807FA05FC4CEA49
:102F6800040686604768019E27EA060747604468AA
:102F780002FA01F292B222434260B2E700234FF60E
:102F8800FF720260037143718371C371704700BFA0
:102F980082B04FF480330193019A41EA020301930E
:102FA800019AC261C1610199C161C3690193C06994
:102FB800019002B0704700BF036919420CBF00209E
:102FC80001207047006980B2704700BF4369194209
:102FD8000CBF002001207047406980B2704700BFD5
:102FE80001837047418370470AB941837047018361
:102FF800704700BF4161704743695940416170475C
:10300800CB08083301F0070130B4890050F8235089
:103018000F2404FA01F425EA040440F8234050F888
:10302800234002FA01F2144340F8234030BC7047B1
:103038004FF46053C4F202030022196841F0010002
:1030480018609A60186843F2100120F0847020F428
:103058008030C2F2004118605960196821F480205C
:103068001860DA60704700BF43F60203C4F2020337
:1030780000221A701870704782B04FF46052002313
:103088000193C4F20202106883030CD5019A511C03
:103098000191019B4FF46053C4F202031868C0F316
:1030A800404002B0704701994B1C01930198B0F55C
:1030B800A06FE8D1EEE700BF4FF46053C4F20203FB
:1030C8001A6822F0F80141EAC0001860704700BF92
:1030D8000023C4F247231860704700BF43F670030B
:1030E800C4F20203002201281A701A7004D00428BE
:1030F80001D1052018707047187070474FF4686345
:10310800C4F247231860704730B40143029D41EA76
:1031180082125B084FF4605442EA0565591EC4F2F6
:10312800020445EA0140606030BC70476023C4F285
:1031380047231860704700BF4FF460538001C4F202
:10314800020340EA0171C3F8841070476823C4F28F
:1031580047231860704700BF4C23C4F24723186008
:10316800704700BF4FF46053C4F202039A6822F01C
:10317800EC62104301439960704700BF4FF46053FD
:10318800C4F202039A6822F078421043014399601E
:10319800704700BF4FF46053C4F202039A6822F0EC
:1031A80003010843986070474FF46053C4F2020368
:1031B800986800F00C0070474FF46053C4F20203A3
:1031C8009A6822F0F0010843986070474FF4605302
:1031D800C4F202039A6822F4E051084398607047E9
:1031E8004FF46053C4F202039A6822F4604141EA42
:1031F800C0009860704700BF4FF46053C4F20203E8
:1032080010B49A6802F00C01042922D0082926D0AB
:103218004FF41052C0F2F40202604FF46053C4F24B
:10322800020321499C68C4F303140C5D22FA04F2DA
:1032380042609C68C4F382240C5D22FA04F4846022
:103248009B68C3F34233C95C22FA01F2C26010BC26
:1032580070474FF49052C0F27A020260DDE75C6872
:10326800596814F4800F5C6801F03F0214BF4FF4F2
:1032780090534FF41053C4F388114FF4605414BFA3
:10328800C0F27A03C0F2F403C4F20204B3FBF2F30F
:1032980003FB01F26168C1F301435C1C6100B2FBEE
:1032A800F1F20260B9E700BF2C01002000F440737E
:1032B800B3F5407F0CD14FF46053C4F2020320F001
:1032C80070419A6821F4407122F4F8121143996010
:1032D8004FF46053C4F2020300051A6F010D114345
:1032E8001967704740F63C63C4F24723186070477B
:1032F8004FF46463C4F24723186070474FF4AE7309
:10330800C4F24723186070474FF46053C4F20203B5
:103318001A6B19B922EA0000186370471043186342
:10332800704700BF4FF46053C4F202035A6B19B9D7
:1033380022EA00005863704710435863704700BF83
:103348004FF46053C4F202039A6B19B922EA0000E1
:103358009863704710439863704700BF4FF46053F9
:10336800C4F202031A6C19B922EA00001864704703
:1033780010431864704700BF4FF46053C4F202034F
:103388005A6C19B922EA000058647047104358640F
:10339800704700BF4FF46053C4F202031A6919B9A9
:1033A80022EA00001861704710431861704700BF97
:1033B8004FF46053C4F202035A6919B922EA0000B3
:1033C8005861704710435861704700BF4FF460530D
:1033D800C4F202039A6919B922EA00009861704799
:1033E80010439861704700BF4FF46053C4F2020362
:1033F8001A6A19B922EA0000186270471043186265
:10340800704700BF4FF46053C4F202035A6A19B9F7
:1034180022EA00005862704710435862704700BFA4
:103428004FF46053C4F202031A6D19B922EA00007E
:103438001865704710431865704700BF4FF4605314
:10344800C4F202035A6D19B922EA000058657047A0
:1034580010435865704700BF4FF46053C4F202032D
:103468009A6D19B922EA000098657047104398656B
:10347800704700BF4FF46053C4F202031A6E19B9C3
:1034880022EA00001866704710431866704700BFAC
:103498004FF46053C4F202035A6E19B922EA0000CD
:1034A8005866704710435866704700BF43F60D03CF
:1034B800C4F202031A7819B922EA0000187070479A
:1034C80010431870704700BF4309012B0ED04FF40A
:1034D8006051C4F20201022B0CBF096F496F00F062
:1034E8001F0021FA00F303F0010070474FF4605207
:1034F800C4F202021168F2E74FF46053C4F2020307
:103508005A6F42F080705867704700BF4FF460539D
:10351800C4F20203D96808420CBF0020012070479A
:1035280043F60E03C4F202031870704708B54FF44F
:103538008053C4F20103984228D04FF48841C4F262
:10354800000188422CD04FF49042C4F2000290420D
:1035580032D04FF49843C4F20003984238D04FF465
:10356800A041C4F2000188423ED04FF4A052C4F2F8
:103578000102904200D008BD20200121FFF742FF40
:1035880020200021BDE80840FFF73CBF10200121A2
:10359800FFF738FF10200021BDE80840FFF732BFD1
:1035A80001214FF40030FFF71FFF4FF400300021D6
:1035B800BDE80840FFF718BF01214FF48020FFF74E
:1035C80013FF4FF480200021BDE80840FFF70CBF2F
:1035D80001214FF40020FFF707FF4FF400200021DE
:1035E800BDE80840FFF700BF01214FF48010FFF746
:1035F800FBFE4FF480100021BDE80840FFF7F4BE41
:10360800028ACB8822F440521204F0B5120C044608
:103618001A4348890F898E880D4689892282A38991
:1036280023F4B05222F00C033E431A040643B3B20B
:10363800100C43EA0006A681A28A22F44070030413
:103648001E0C0E4385B0A6826846FFF7D5FD4FF4E1
:103658008051C4F201018C422CD04FF4A052C4F224
:103668000102944226D0A089029B06B2002E26DBD6
:103678002D6803EB830101EB8102AB00B2FBF3F190
:1036880048F21F53A089C5F2EB13A3FB0156720938
:1036980000B264251601002802FB151118DB0D0184
:1036A8003235A3FB0553C3F34312324391B2218150
:1036B80005B0F0BDA089039B06B2002ED8DA2868B1
:1036C80003EB830606EB86054200B5FBF2F1D7E76C
:1036D800C8003230A3FB0013C3F342123243E5E7BC
:1036E80000234FF416520C2102608380C3800381AB
:1036F80041818381704700BF0A88038A30B44D88AE
:103708008C88C9882A4323F4706322431B040A4324
:1037180092B2190C42EA0103038230BC704700BF21
:103728000023038043808380C3807047838929B93D
:1037380023F400510A04130C8381704799B241F4B1
:1037480000528281704700BF038B03F47F420283DB
:10375800038B9AB211430183704700BF838919B95B
:1037680059044A0C828170476FEA43436FEA534118
:103778008AB28281704700BF838A29B923F4006125
:103788000A04130C8382704799B241F40062828262
:10379800704700BFC905CA0D828070478088C1057F
:1037A800C80D7047038A23F00F0213041A0C028213
:1037B800038A9AB211430182704700BF838929B9ED
:1037C80023F002010A04130C8381704799B241F077
:1037D80002028281704700BF838923F400621304C8
:1037E8001A0C828183899AB211438181704700BF84
:1037F800038A23F0200213041A0C0282038A9AB265
:1038080011430182704700BF038A29B923F480411C
:103818000A04130C0382704799B241F48042028271
:10382800704700BF838999B241F0010282817047D5
:10383800838A29B923F008010A04130C838270478C
:1038480099B241F008028282704700BF038BDAB256
:103858000283038B9AB242EA01210183704700BFB9
:10386800838A29B923F020010A04130C8382704744
:1038780099B241F020028282704700BF838A29B939
:1038880023F010010A04130C8382704799B241F0A7
:1038980010028282704700BF838A23F00402130457
:1038A8001A0C8282838A9AB211438182704700BFC0
:1038B800838A29B923F002010A04130C8382704712
:1038C80099B241F002028282704700BF838A9BB29C
:1038D8001AB923EA0101818270471943818270472E
:1038E80001F01F0310B4C1F342110124A14204FAEC
:1038F80003F30DD002290DD014302AB9026822EA48
:103908000301016010BC7047026813430360F9E7C4
:103918000C30F2E71030F0E7038819420CBF0020A2
:1039280001207047C9438AB20280704710B4C1F3BE
:103938004213012401F01F02A34204FA02F214D038
:10394800022B0CBF038A838A9BB21340008882B281
:103958004BB1090A012303FA01F010420CBF002001
:10396800012010BC70471846FBE783899BB21340BF
:10397800ECE700BF090A012303FA01F2D1438BB235
:10398800038070474FF46D4340F0BF60CEF20003F0
:1039980040F40031D9607047C37830B47BB90278FD
:1039A8004FF461435109CEF2000302F01F022031A7
:1039B800012000FA02F243F8212030BC70474FF48E
:1039C8006D44CEF200044578E16884780378CA43F0
:1039D800C2F30222C2F10401C9B205FA01F10F25AE
:1039E80045FA02F2C9B222400A4303F160431101C9
:1039F80003F56143CAB283F8002300784FF46143AA
:103A0800410900F01F02CEF20003012000FA02F281
:103A180043F82120D1E700BF21F060414FF46D4306
:103A280021F07F02CEF2000310439860704700BF78
:103A38004FF46D43CEF200031A6919B922EA000067
:103A48001861704710431861704700BF4EF21003A9
:103A5800CEF2000304281A680CBF42F0040222F0D8
:103A680004021A60704700BF4FF46053C4F20203A7
:103A78000022196841F0010018609A60186843F242
:103A8800100120F0847020F48030C2F200411860E8
:103A98005960196882B021F480201860DA600092B9
:103AA80001921A6842F480311960184603E00099BF
:103AB800B1F5A06F09D0036803F4003201920099B0
:103AC8004B1C0093019A002AF1D04FF46050C4F2C5
:103AD8000200036813F400320DD00121019101980E
:103AE80001280CD04FF46D43CEF200034FF0006173
:103AF800996002B07047019201980128F2D14FF401
:103B08006053C4F202034FF4E042196CC4F200029D
:103B180041F080501864116841F4804010609A6840
:103B28009A60996841F400409860996844F60802E0
:103B380041F4A050C0F2406298605A60196841F0A0
:103B480080721A60184601684FF460538A01C4F203
:103B58000203F8D54FF47052C4F2020240F2056035
:103B68001060996821F003029A60986840F0020199
:103B780099609A6802F00C000828FAD1B2E700BFF1
:103B88004FF46053C4F202039A6802F00C00042850
:103B980012D0082815D04FF41051C0F2F4014FF498
:103BA8006050C4F20200184B8268C2F303101A5C1A
:103BB80021FA02F1196170474FF49051C0F27A016D
:103BC800EDE758685A6810F4800F586802F03F0112
:103BD80014BF4FF490534FF41053C0F388124FF4AE
:103BE800605014BFC0F27A03C0F2F403C4F20200BA
:103BF800B3FBF1F303FB02F14268C2F30143581C23
:103C08004200B1FBF2F1CAE73C010020CC430008B6
:103C1800000000207C05002080050020241F0020D3
:103C28002DE9F043082085B00121FFF76DFB4FF423
:103C3800406000220223C4F2020002A90F248DF87A
:103C48000C208DF80D308DF80E208DF80F30029471
:103C5800FFF7ECF829492A482A4A2B4B0091012101
:103C6800FDF7F8FADFF8AC90284FFCF747FEFCF7B1
:103C7800E9FA4FF4406809F10406C4F20208FCF7B7
:103C880005FB0028FBD07A684FF4FA6E002511680E
:103C9800D8F81000136814684FEA001C01F18F006F
:103CA8005FFA8CFCC01A13681B1B9842FBD8D8F823
:103CB800104009EB050304F00F004CEA00041C71E6
:103CC800013513681068B5F5FA6F01F21F1188BF46
:103CD8000025CC1A1368191A8C42FBD8BEF1010EC4
:103CE800D5D17019C5F5FA6189F8D4E7FCF7E6FC77
:103CF80007482946FCF7E2FCC1E700BF6C0000203A
:103D0800DC0E002050000020D0000020040000201D
:103D1800A00500209C050020002100F004B80D4BF0
:103D28005B58435004310C480C4B42189A42FFF43C
:103D3800F6AF0B4A00F003B8002342F8043B094BE6
:103D48009A42FFF4F9AFFFF78FFE00F09DF8FFF7F6
:103D580067FF7047CC430008000000207C05002066
:103D680080050020241F0020FFF7FEBF2DE9F04149
:103D7800274C2568D5F8484184B00746002C41D027
:103D880066681F2E1CDD234810B94FF0FF301FE076
:103D98004FF4C870039102920193AFF30080039926
:103DA800029A019B04460028EFD0D5F8486100200C
:103DB80060602660C5F84841C4F88801C4F88C01E1
:103DC800656847B9A81C013544F8201065600020D3
:103DD80004B0BDE8F081D4F88861012004EB8508BF
:103DE80000FA05F00643022FC8F88820C4F8886155
:103DF800C8F80831E6D1D4F88C3143EA0002C4F897
:103E08008C21DFE705F5A674C5F84841B8E700BF7F
:103E1800984300080000000008B50021044600F09F
:103E28001DF9044B1868C16B01B18847204600F0A2
:103E3800C0EA00BF9843000870B5114B114C181B1D
:103E4800811018D004EB81044E1E354654F8042D19
:103E580006F00106904775B126B154F8043D98471D
:103E6800013D08D054F8040D8047013D54F8041D65
:103E78008847013DF6D1BDE8704000F093BA00BF15
:103E8800CC430008C8430008F8B5204F204C381B25
:103E9800871017D07A1E2368012502F0010698477B
:103EA800AF420FD02EB154F8041F02258847AF4205
:103EB80008D0606880470235A268261D90470834FC
:103EC800AF42F6D1134F144C00F066FA3B1B9F101B
:103ED80018D07D1E216805F0010601258847AF42EC
:103EE80011D02EB154F8040F02258047AF420BD0F1
:103EF800626890470235A368261D98470834AF4288
:103F0800F6D1F8BDF8BDF8BDF8BD00BFC043000844
:103F1800C0430008C8430008C0430008F0B4840741
:103F2800034600F08E80541E002A00F08880E507C2
:103F3800CEB211D41A46671E02F8016B1346154615
:103F480092070FD0002C7AD003F8016B9A073C46F1
:103F58001D4607D0013CEDE7034603F8016B9A07BD
:103F68001D46F7D1032C52D9CEB246EA06270F2CAC
:103F780047EA07432DD9A4F1100217460F2FC2F3C1
:103F880000162B606B60AB60EB6005F1100216D970
:103F98003EB1103F136053609360D36010320F2F0F
:103FA8000DD9203F02F11006136053609360D3606F
:103FB800136153619361D36120320F2FF1D8A4F1BB
:103FC800100222F00F0204F00F041032032C1544E3
:103FD8001DD9271F3E462A46032E42F8043BC7F345
:103FE80080070DD927B1043E032E42F8043B07D9B8
:103FF8001746083E47F8043B53603A1D032EF7D88E
:10400800231F23F00302131D04F00304ED18B4B1B9
:104018002B46C9B203F8011B2C19ED436219A342C0
:1040280002F001050BD01DB103F8011BA34206D015
:104038001A4602F8011B5970531CA342F8D1F0BC70
:104048007047054614468DE7024B13B1024800F04D
:1040580049B9704700000000413E00082DE9F04FC3
:104068009F4B87B01A68049002F5A47003920D461E
:1040780005904FF0010A0399DDF81490D1F84841F2
:10408800002C43D06268B2F1010838D404F1880BDF
:104098001F320BEB820308F0010C002D00F08C801E
:1040A8005BF82260AE4200F087801E1F08F1FF37E0
:1040B800B8F1000F23D0BCF1000F0BD0002D00F099
:1040C800A28053F8043CAB4200F09D80013F043EBF
:1040D8007B1C14D0B846E5B13768AF4219D008F157
:1040E800FF37A6F10408002D3FD056F8046CAE4205
:1040F8003BD0A8F1040607F1FF38002FEBD140F2BE
:104108000002C0F20002002A40F0DA8007B0BDE8E1
:10411800F08F6168CBEB0602A0184F1E474550F898
:10412800783C00F09280002240F8782C002BD6D002
:10413800D4F8881167680AFA08F008423AD0D4F827
:104148008C21104240F09780049856F8801C9847BC
:104158006368BB428FD1D9F80010A1428BD108F116
:10416800FF37A6F10408002DBFD16368CBEB080028
:10417800591E2218B94252F8783C69D0002642F8F4
:10418800786C002BB5D0D4F8880166680AFA07F273
:10419800024236D0D4F88C110A4270D058F8800CFC
:1041A80098476368B3427FF466AFD9F80000A0422D
:1041B8009FD060E79847CBE76268CBEB0300561EB9
:1041C8002118464551F8782C70D0002041F8780C19
:1041D800002A3FF46AAFD4F8880166680AFA08F141
:1041E800014237D0D4F88C01014255D153F8801CD4
:1041F80004980293CDF804C09047029BDDF804C0F0
:104208002FE09847CDE76168CBEB06002218481EDF
:10421800B84252F8783C4CD0002142F8781C002B68
:104228003FF454AFD4F88801D4F804800AFA07F2AE
:10423800024229D19847636843457FF41CAFD9F8F7
:104248000000A0423FF442AF15E7C4F804806DE7D0
:10425800676096E70293CDF804C09047029BDDF8AB
:1042680004C06268B2427FF406AFD9F80010A142D8
:104278003FF41BAFFFE656F8800C984768E70498B0
:1042880058F8801C98478CE7D4F88C110A4212D051
:1042980056F8800C9847CEE753F8800C0293CDF877
:1042A80004C09047029BDDF804C0DAE7C4F8048034
:1042B8008EE76760B3E7049856F8801C9847BAE71A
:1042C800616849B9236843B12046C9F80030AFF3A3
:1042D8000080D9F80040D3E62368A1461C46CFE603
:1042E800984300080146002002460346FFF73EBDFA
:1042F8000201020053544D6963726F656C65637403
:10430800726F6E696373000056435020496E74657E
:10431800726661636500000056435020436F6E6605
:10432800696700003030303030303030303530425E
:10433800000000003030303030303030303530431D
:104348000000000053544D33322056697274756171
:104358006C20436F6D506F727420696E2048532033
:104368006D6F64650000000053544D333220566968
:10437800727475616C20436F6D506F727420696E32
:10438800204653204D6F6465000000004300000084
:104398005001002000000000F8B500BFF8BC08BCC0
:1043A8009E467047F8B500BFF8BC08BC9E467047EB
:0843B80024BEFF7F010000009C
:0843C00051400008AD010008A6
:0443C800890100085F
:1043CC0000000000FCED00E0041000E0001000E034
:1043DC0040420F0000000800B5040008B9040008B2
:1043EC00E1050008BD0400083D05000812010002AB
:1043FC00000000408304405700020102030100004A
:10440C00040309040A060002000000400100000039
:10441C002D0900083D09000849090008D5090008C4
:10442C00A90900088909000869090008010A00089F
:10443C00050A0008090A0008150A0008190A0008EC
:10444C000D0A0008110A0008FF00000009024300D1
:10445C00020100C03209040000010202010005241F
:10446C0000100105240100010424020205240600A9
:10447C0001070582030800FF09040100020A00007D
:10448C000007050102000100070581020001000080
:10449C00AD0F0008810F0008B90E000800000000E5
:1044AC00B90D0008191000087D0E0008F50D000864
:1044BC000000000000000000E90D000800010020D1
:1044CC00E111000845110008F910000899100008C6
:1044DC00C9100008851000086D100008A91000080C
:1044EC00B9100008000000000000000000000000EF
:1044FC00010203040102030406070809000000007E
:10450C000000000001020304060708090044950896
:10451C00000000003C040020A40400200C05002036
:10452C00000000000000000000000000000000007F
:10453C00000000000000000000000000000000006F
:10454C000000000094430008000000000000000080
:10455C00000000000000000000000000000000004F
:10456C00000000000000000000000000000000003F
:10457C00000000000000000000000000000000002F
:10458C00000000000000000000000000000000001F
:10459C00000000000000000000000000000000000F
:1045AC0000000000000000000000000000000000FF
:1045BC0000000000000000000100000000000000EE
:1045CC000E33CDAB34126DE6ECDE05000B000000B3
:1045DC0000000000000000000000000000000000CF
:1045EC0000000000000000000000000000000000BF
:1045FC0000000000000000000000000000000000AF
:10460C00000000000000000000000000000000009E
:0C493C00000000000000000050010020FE
:04494800000000006B
:0400000508003D2191
:00000001FF
